:020000040800F2
:10000000B8060020890100083F0C0008B90A000862
:100010003D0C00088F020008450D0008000000009C
:10002000000000000000000000000000ED0C0008CF
:100030009102000800000000910C0008EF0C00087D
:10004000A3010008A3010008A3010008A301000800
:10005000A3010008A3010008A3010008A3010008F0
:10006000A3010008A3010008A3010008A3010008E0
:10007000A3010008A3010008A3010008A3010008D0
:10008000A3010008A3010008A3010008A3010008C0
:10009000A3010008A3010008A3010008A3010008B0
:1000A000A3010008A3010008A3010008A3010008A0
:1000B000A3010008A3010008A3010008A301000890
:1000C000A3010008A3010008A3010008A301000880
:1000D000A3010008A3010008A3010008A301000870
:1000E000A3010008A3010008A301000800F002F822
:1000F00000F03AF80AA090E8000C82448344AAF188
:100100000107DA4501D100F02FF8AFF2090EBAE885
:100110000F0013F0010F18BFFB1A43F0010318473B
:10012000E80E0000080F0000103A24BF78C878C11C
:10013000FAD8520724BF30C830C144BF04680C60ED
:10014000704700000023002400250026103A28BF35
:1001500078C1FBD8520728BF30C148BF0B60704739
:100160001FB51FBD10B510BD00F058F81146FFF7C0
:10017000F7FF00F025FE00F076F803B4FFF7F2FF7A
:1001800003BC00F07DF8000009488047094800479B
:10019000FEE7FEE7FEE7FEE7FEE7FEE7FEE7FEE737
:1001A000FEE7FEE704480549054A064B7047000094
:1001B000430D0008ED000008B8000020B80600203C
:1001C000B8020020B80200204FF0000200B513462C
:1001D00094469646203922BFA0E80C50A0E80C5067
:1001E000B1F12001BFF4F7AF090728BFA0E80C5018
:1001F00048BF0CC05DF804EB890028BF40F8042B11
:1002000008BF704748BF20F8022B11F0804F18BF7D
:1002100000F8012B7047704770477047754600F033
:100220002BF8AE4605006946534620F00700854688
:1002300018B020B5FFF7B6FFBDE820404FF000062C
:100240004FF000074FF000084FF0000B21F00701BE
:10025000AC46ACE8C009ACE8C009ACE8C009ACE801
:10026000C0098D46704710B50446AFF300802046A4
:10027000BDE81040FFF781BF0048704754000020E0
:1002800001491820ABBEFEE7260002007047FEE7DA
:100290007047000010B5094C00221021204600F0E4
:1002A00015F900222021204600F010F920460122F5
:1002B000BDE81040402100F009B9000000080140ED
:1002C00010B5094C00220221204600F0FFF8002260
:1002D0000421204600F0FAF820460122BDE8104033
:1002E000082100F0F3B80000000801402DE9F84FA4
:1002F000DFF8B8910024A9F1040B23460F2709F178
:10030000040AABF1040EC9E00125A5402A40AA4227
:100310007DD1674ED1F804C0ACEB0608B44532D0AD
:1003200014DCBCF1030F3AD009DCBCF1000F2AD079
:10033000BCF1010F1CD0BCF1020F31D11DE0BCF1AA
:10034000110F17D0BCF1120F2AD119E0B8F5881F90
:1003500019D006DCB8F5803F15D0B8F5801F1FD145
:1003600011E0B8F5001F0ED0B8F5041F18D10AE04F
:10037000CB6815E0CB681B1D12E0CB6808330FE09B
:10038000CB680C330CE08B682BB1012B4FF00803CA
:1003900003D0456104E0042302E0056100E000238E
:1003A000FF2A01D8064601E000F104064FEA840561
:1003B00001D9A5F12005D6F8008007FA05FC28EA46
:1003C0000C0803FA05F548EA0508C6F800804D68F0
:1003D000ED0062D5374DAE6946F00106AE61AD69FC
:1003E00024F0030605F001050095334D06EB050CDE
:1003F000DCF80850A607360F07FA06F825EA0805C4
:10040000DFF8B880404503D14FF0000817E044E022
:10041000DFF8AC80404502D14FF001080FE0DFF873
:10042000A480404502D14FF0020808E0DFF8988030
:10043000404502D14FF0030801E04FF0040808FAEC
:1004400006F848EA0508CCF808804D68D9F800603D
:10045000ED024D4601D5164300E096432E604D68EF
:10046000DAF80060AD02554601D5164300E0964328
:100470002E604D68DBF80060AD035D4601D5164384
:1004800000E096432E604D68DEF80060ED0375468F
:1004900001D5164300E096432E60641C0D682A4681
:1004A000E5407FF431AFBDE8F88F0000080401405B
:1004B000000011100010024000000140000801403F
:1004C000000C014000100140001401400AB101611C
:1004D00070470904FBE7000001488068704700008E
:1004E000440000200248816802781144816070470E
:1004F00044000020074810B5016841F01001016078
:10050000032000F067F80F2000F006F800F024F850
:10051000002010BD0020024070B50D4D04464FF480
:100520007A712878B1FBF0F00A490968B1FBF0F064
:1005300000F0AEFA48B9102C07D200222146501E16
:1005400000F028F800206C6070BD012070BD000034
:1005500044000020500000200C4808B5816941F09B
:1005600001018161816901F001010091C16941F0DE
:100570008051C161C06900F080500090044841681A
:1005800021F0E06141F00071416008BD00100240BF
:1005900000000140F0B40E4B1B680C46C3F302236D
:1005A000C3F10705042D00D90425191D072901D21F
:1005B000002300E0DB1E012606FA05F1491E21405A
:1005C00099409E40761E16403143F0BC00F0E8BBD7
:1005D0000CED00E0064900F0070208684FF6FF0343
:1005E000184040EA0220034A1043086070470000A8
:1005F0000CED00E00000FA052DE9F0470F4605007C
:1006000061D0434E306800F00700B84209D230682C
:1006100020F0070038433060306800F00700B8422F
:1006200051D128683B4C810712D5400703D560683B
:1006300040F4E06060602878000703D5606840F40B
:10064000605060606068A96820F0F0000843606056
:100650002878C00728D06868012810D021680228AF
:1006600010D0890700292EDA616821F003010143C7
:100670006160FFF731FF804641F288390DE0216863
:100680008903EFE78901EDE7FFF726FFA0EB0801FB
:10069000494502D90320BDE8F0876068696800F029
:1006A0000C00B0EB810FEFD1306800F00700B842CA
:1006B0000BD9306820F0070038433060306800F014
:1006C0000700B84201D00120E5E72878400705D5AA
:1006D0006068E96820F4E0600843606028780007FB
:1006E00006D56068296920F4605040EAC100606066
:1006F00000F018F86168084AC1F30311515CC84062
:100700000649086006480068FFF706FF0020C2E7B8
:100710000020024000100240F60F000850000020A8
:10072000480000200E4A51680E4801F00C03042BCB
:1007300011D0082B0FD10C48C1F38343C903C05C0F
:100740000AD55168084AC1F34041921E515C054ADE
:100750005043B0FBF1F07047044948437047000034
:100760000010024000127A00E60F000800093D0068
:100770002DE9F84F040070D02078C04DC00749D053
:100780006868C0F38100012807D06868C0F3810061
:10079000022809D16868C00306D52868800339D5C6
:1007A00060680028E7D035E06068B0F5803F0BD086
:1007B00010B1B0F5A02F11D0286820F48030286047
:1007C000286820F4802002E0286840F48030286007
:1007D000606890B1FFF780FE06460AE0286840F4A2
:1007E00080202860F0E700BFFFF776FE801B6428BA
:1007F00073D828688003F7D50CE0FFF76DFE064636
:1008000005E000BFFFF768FE801B6428F0D8286869
:100810008003F7D420789A4E80074FF001094FF0FB
:10082000000839D5686810F00C0F07D06868C0F36D
:100830008100022809D16868C00306D428688007AF
:1008400014D52069012808D110E02069B0B1C6F89C
:100850000090FFF741FE074605E00AE1FFF73CFE86
:10086000C01B0228C4D828688007F7D528686169AA
:1008700020F0F80040EAC10028600DE0C6F80080D2
:10088000FFF72AFE074604E0FFF726FEC01B0228FA
:1008900023D828688007F7D4207800072CD579481A
:1008A000A169D9B1C0F80090FFF716FE074604E031
:1008B000FFF712FEC01B02280FD8686A8007F7D521
:1008C00071484FF4FA510068B0FBF1F0009000BF9E
:1008D0000098411E0091FAD20EE080E0C0F800803E
:1008E000FFF7FAFD074604E0FFF7F6FDC01B0228FC
:1008F00075D8686A8007F7D42078400760D5E86922
:100900000027C00008D4E86940F08050E861E86939
:10091000012700F0805000905C480168C90513D49D
:100920000168834641F480710160FFF7D5FD82467E
:1009300006E000BFFFF7D0FDA0EB0A0064284ED808
:10094000DBF80000C005F5D5E06801280AD008B141
:10095000052813D0286A20F001002862286A20F0B8
:10096000040002E0286A40F001002862E06841F2D9
:10097000883B98B1FFF7B0FD82460BE0286A40F053
:1009800004002862EEE700BFFFF7A6FDA0EB0A0116
:1009900059455AD8286A8007F6D50CE0FFF79CFD28
:1009A000824605E0FFF798FDA0EB0A0159454CD8B7
:1009B000286A8007F6D41FB1E86920F08050E8610A
:1009C000E06988B36968C1F38101022944D0022833
:1009D000C6F8608004D0FFF77FFD044638E034E0BD
:1009E000FFF77AFD074604E0FFF776FDC01B0228FB
:1009F0002BD828688001F7D4206AB0F5803F05D154
:100A00006868A16820F4003008436860D4E90801F0
:100A10000843696821F4741108436860C6F860905F
:100A2000FFF75AFD044606E025E000BFFFF754FD3E
:100A3000001B022809D828688001F7D51BE000BFF9
:100A4000FFF74AFD001B022802D90320BDE8F88FFA
:100A500028688001F4D40EE00128F7D06868226A83
:100A600000F48031914204D1616A00F47010884230
:100A700001D00120EAE70020E8E700000010024072
:100A800000004242800442425000002000700040BA
:100A900010B5401EB0F1807F01D3012010BD4FF092
:100AA000E02460610F21601700F07AF90020A06156
:100AB00007202061002010BDFEE700002DE9F04175
:100AC000184C0D4666154FF48067012802D00228A5
:100AD00008D011E0002239462046FFF7F7FC01223A
:100AE000314606E0002231462046FFF7EFFC0122A6
:100AF00039462046FFF7EAFC0B4E0C4F002400BF9E
:100B000025FA04F0C00736F8240081B208D001228B
:100B10003846FFF7DBFC641C072CF1DBBDE8F081F5
:100B20000022F5E70008014028000020000C0140E9
:100B30002DE9F041174C0D464FF48076012802D084
:100B4000022808D011E0002231462046FFF7BEFC03
:100B50000122802106E0002280212046FFF7B6FC1A
:100B6000012231462046FFF7B1FC0B4E0B4F00240B
:100B700025FA04F0C00736F8240081B208D001221B
:100B80003846FFF7A3FC641C072CF1DBBDE8F081BD
:100B90000022F5E7000801400C000020000C014095
:100BA0002DE9F04385B0002421480094019402947B
:100BB0000394816941F020018161816901F0200184
:100BC0000491816941F004018161816901F00401AE
:100BD0000491816941F0080181618069DFF85480E6
:100BE00000F0080040F2FE750490002229464046BD
:100BF000FFF76CFCDFF8409043F6FF7700223946A0
:100C00004846FFF763FC0095022601250396CDE9CF
:100C1000015469464046FFF769FB00970396CDE90A
:100C2000015469464846FFF761FB05B0BDE8F08313
:100C30000010024000080140000C0140FEE7FEE702
:100C400070B5074D074E0024012235F8240081B20B
:100C50003046FFF73BFC641C072CF5DB70BD000041
:100C600028000020000C014070B5074D074E0024FD
:100C7000012235F8240081B23046FFF727FC641CBE
:100C8000072CF5DB70BD00000C000020000C0140BB
:100C90007047000010B5094C012210212046FFF7D3
:100CA00015FC002220212046FFF710FC20460022E0
:100CB000BDE810404021FFF709BC000000080140DA
:100CC00010B5094C012202212046FFF7FFFB00224C
:100CD00004212046FFF7FAFB20460022BDE8104021
:100CE0000821FFF7F3BB0000000801407047FFF741
:100CF000F9BB10B590B028216846FFF765FA1421BA
:100D00000AA8FFF761FA0220009001200490102049
:100D10000024059007946846FFF72AFD08B172B6D3
:100D2000FEE70F20CDE90A040C940D9400210AA8D7
:100D30000E94FFF761FC002801D072B6FEE710B0F8
:100D400010BD7047FEE7000010B5094C00221021CD
:100D50002046FFF7BBFB012220212046FFF7B6FB10
:100D600020460022BDE810404021FFF7AFBB000045
:100D70000008014010B5094C002202212046FFF76F
:100D8000A5FB012204212046FFF7A0FB20460022FC
:100D9000BDE810400821FFF799BB000000080140A2
:100DA0000907090E002804DB00F1E02080F8001498
:100DB000704700F00F0000F1E02080F8141D70472C
:100DC00092B0FFF797FBFFF794FFFFF7E9FE46F6B7
:100DD000605047F6181840F6B83A0A90FFF77CFBC7
:100DE0000290FFF779FB0190FFF776FB8146FFF752
:100DF00073FB0390FFF770FB059047F230514FF4FF
:100E00007A7091FBF0F646F6781191FBF0F54FF011
:100E1000010BFFF755FFFFF73DFA01200990704FD6
:100E2000CDF82000FFF758FB0446387820B10128A0
:100E300018D002283FD12AE00298211A4FF47A7084
:100E4000814207D3761E04D50A99A1F57A7191FBE8
:100E5000F0F602940398211A41452CD3FFF730FA9B
:100E6000022026E00298211A514508D3012009905A
:100E7000A8F57A704FF47A7190FBF1F6029403981A
:100E8000211A514517D3FFF71BFF002011E00298EC
:100E9000201AB0F57A7F04D3761E01D50020099080
:100EA00002940398211A0A98814204D3FFF762FF43
:100EB000012038700394787820B1012818D00228D6
:100EC0003FD12AE00198211A4FF47A70814207D36A
:100ED0006D1E04D50A99A1F57A7191FBF0F5019484
:100EE0000598211A41452CD3FFF7D4F9022026E0BA
:100EF0000198211A514508D301200890A8F57A706D
:100F00004FF47A7190FBF1F501940598211A51453F
:100F100017D3FFF7BFFE002011E00198201AB0F5AB
:100F20007A7F04D36D1E01D50020089001940598A6
:100F3000211A0A98814204D3FFF706FF0120787036
:100F40000594A4EB09000528FFF46CAF0A2096FB7A
:100F5000F0F195FBF0F30AB296FBF0F11BB20E93A1
:100F600095FBF0F300FB116100FB13500FFA80F9C1
:100F7000099809B2BBF1010F07D0F0B11848801CE5
:100F8000415C0220FFF7D4FD19E030B11448801C09
:100F9000815C0120FFF7CCFD01E0FFF765FE0898BA
:100FA00038B10F480E99801C415C0120FFF786FD87
:100FB00001E0FFF745FE02200EE0FFF755FE08981E
:100FC00038B10748801C10F809100220FFF776FDA1
:100FD00001E0FFF735FE01208346A14622E700002D
:100FE00000000020010202030405060708090A0B9D
:100FF0000C0D0E0F10100000000000000000010298
:10100000030406070809000028100008000000205B
:1010100054000000280100087C1000085400002043
:1010200064060000440100080002C0F9A4B09992CF
:1010300082F880900100000002000000040000001F
:101040000800000010000000200000004000000028
:101050008000000000010000000200000004000009
:101060000008000000100000002000000100000047
:0C107000100000000000000000127A00D8
:04000005080000ED02
:00000001FF
